{
  "contractName": "Entry",
  "abi": [
    {
      "constant": true,
      "inputs": [],
      "name": "getCurrentTime",
      "outputs": [
        {
          "internalType": "uint256",
          "name": "",
          "type": "uint256"
        }
      ],
      "payable": false,
      "stateMutability": "view",
      "type": "function"
    }
  ],
  "bytecode": "0x6080604052348015600f57600080fd5b5060868061001e6000396000f3fe6080604052348015600f57600080fd5b506004361060285760003560e01c806329cb924d14602d575b600080fd5b60336049565b6040518082815260200191505060405180910390f35b60004290509056fea265627a7a723158205b9a3e98b9b49e6216d0a7e7698c359b2356e69bf297a4dfaec02f17b4cadf6164736f6c634300050c0032",
  "source": "pragma solidity ^0.5.11;\n\ncontract Entry {\n    string description;\n    string[] prescribedMedications;\n\n    function getCurrentTime() public view returns(uint) {\n        return now;\n    }\n}",
  "sourcePath": "/home/pwhitdog/code/HumanChart/contracts/Entry.sol",
  "compiler": {
    "name": "solc",
    "version": "0.5.12+commit.7709ece9.Emscripten.clang"
  },
  "schemaVersion": "3.0.19",
  "updatedAt": "2019-12-05T21:21:38.064Z",
  "devdoc": {
    "methods": {}
  },
  "userdoc": {
    "methods": {}
  }
}