{
  "contractName": "Vitals",
  "abi": [
    {
      "inputs": [],
      "payable": false,
      "stateMutability": "nonpayable",
      "type": "constructor"
    },
    {
      "constant": true,
      "inputs": [],
      "name": "getCurrentTime",
      "outputs": [
        {
          "internalType": "uint256",
          "name": "",
          "type": "uint256"
        }
      ],
      "payable": false,
      "stateMutability": "view",
      "type": "function"
    }
  ],
  "bytecode": "0x608060405234801561001057600080fd5b506040518060400160405280600681526020017f566974616c7300000000000000000000000000000000000000000000000000008152506000908051906020019061005c929190610082565b5061006f61007a60201b6100491760201c565b600281905550610127565b600042905090565b828054600181600116156101000203166002900490600052602060002090601f016020900481019282601f106100c357805160ff19168380011785556100f1565b828001600101855582156100f1579182015b828111156100f05782518255916020019190600101906100d5565b5b5090506100fe9190610102565b5090565b61012491905b80821115610120576000816000905550600101610108565b5090565b90565b6086806101356000396000f3fe6080604052348015600f57600080fd5b506004361060285760003560e01c806329cb924d14602d575b600080fd5b60336049565b6040518082815260200191505060405180910390f35b60004290509056fea265627a7a72315820b5bd73844d46041bf00a2c02f27f37bcb4233dd61edc3d420b88f0a55d65f07464736f6c634300050c0032",
  "source": "pragma solidity ^0.5.11;\nimport \"../Entry.sol\";\n\ncontract Vitals is Entry{\n    uint date;\n\n    constructor() public {\n        description = \"Vitals\";\n        date = Entry.getCurrentTime();\n    }\n}",
  "sourcePath": "/Users/paulwhitmer/Projects/HumanChart/contracts/EntryTypes/Vitals.sol",
  "compiler": {
    "name": "solc",
    "version": "0.5.12+commit.7709ece9.Emscripten.clang"
  },
  "schemaVersion": "3.0.19",
  "updatedAt": "2019-12-06T21:54:57.561Z",
  "devdoc": {
    "methods": {}
  },
  "userdoc": {
    "methods": {}
  }
}